:100000000C94D5000C94FD000C94FD000C94FD00A4
:100010000C94FD000C94FD000C94FD000C94FD006C
:100020000C94FD000C94FD000C947C050C94E505EB
:100030000C94FD000C94FD000C94FD000C94FD004C
:100040000C94FD000C94FD000C94FD000C94FD003C
:100050000C94FD000C94FD000C94FD000C943205F2
:100060000C94FD000C94FD000C94FD000C94FD001C
:100070000C94FD000C94FD000C94FD000C94FD000C
:100080000C94FD000C94FD000C94FD000C94FD00FC
:100090000C94FD000C94FD000C94FD000C94FD00EC
:1000A0000C94FD000C94FD000C94FD00080B000264
:1000B0000202000009040000010202000005240001
:1000C0001001052401010104240206052406000193
:1000D0000705810310004009040100020A00000026
:1000E00007050202400000070583024000000403E8
:1000F000090412010002EF0201409A23118000015D
:10010000010203014164616672756974004369729A
:100110006375697420506C617967726F756E6400E5
:1001200000000000250028002B002E0031000000F8
:100130000000240027002A002D00300000000000ED
:100140002300260029002C002F00040404040403CB
:100150000405020202020403020202020606060667
:10016000060604040202020404040802011040808E
:10017000401020408040800802040180402010028E
:1001800001108010204040200000000200090F00F4
:1001900000030401000C000000000000000000004B
:1001A0000000000000000000270811241FBECFEF50
:1001B000DAE0DEBFCDBF11E0A0E0B1E0E0EDFAE1B2
:1001C00002C005900D92A439B107D9F722E0A4E945
:1001D000B1E001C01D92A631B207E1F710E0C5ED14
:1001E000D0E004C02197FE010E94600DC43DD107FC
:1001F000C9F70E9442080C94660D0C94000090917F
:10020000B201911103C08FEF9FEF08954FB7F8949B
:1002100092E09093E9009091F200292F30E01216BD
:10022000130614F421E030E0232B29F084E68093B8
:10023000B1018091F100992339F02091F200211150
:1002400003C02BE62093E8004FBF9923E1F290E032
:1002500008952FB7F89483E08093E9009091E80027
:10026000892F807295FF04C09091F20080E4891B71
:100270002FBF08958091A90181110DC082E0809364
:10028000A50184E08093A6011092A8011092A70115
:1002900081E08093A90185EA91E0089581508F3033
:1002A00008F047C0E82FF0E0E85AFE4F0C94600DCC
:1002B0007501790167016D01710199019901990138
:1002C0007C01820186018A0190019901940180914B
:1002D00080008F77809380000895809180008F7DCB
:1002E000F9CF80918000877FF5CF84B58F7784BD6B
:1002F000089584B58F7DFBCF809190008F77809398
:1003000090000895809190008F7DF9CF80919000AA
:10031000877FF5CF8091C0008F778093C0000895CC
:100320008091C0008F7DF9CF8091C200877F80933C
:10033000C20008953FB7F8948091A1019091A20165
:10034000A091A301B091A40126B5A89B05C02F3FA1
:1003500019F00196A11DB11D3FBFBA2FA92F982FEB
:100360008827BC01CD01620F711D811D911D43E0E5
:10037000660F771F881F991F4A95D1F708952F920E
:100380003F924F925F926F927F928F929F92AF9225
:10039000BF92CF92DF92EF92FF920F931F93CF9372
:1003A000DF93C82F062F49015A010E949A016B0161
:1003B0007C01D0E0CE0188579E4F2C01FE01E75909
:1003C000FE4F3F01C65BDE4F10E0F2018491F30166
:1003D0003490FE012490222029F181110E944E01C7
:1003E000E22DF0E0EE0FFF1FE45CFE4FA591B4910B
:1003F0008C91382231E020E009F430E0832F922FF5
:100400000817190791F40E949A016C197D098E0949
:100410009F0986169706A806B906B8F660E070E050
:10042000CB0109C090E080E0EBCF0E949A016C19EB
:100430007D098E099F09DF91CF911F910F91FF9048
:10044000EF90DF90CF90BF90AF909F908F907F9074
:100450006F905F904F903F902F9008958F929F9252
:10046000AF92BF92CF92DF92EF92FF924B015C016D
:100470000E949A016B017C010E949A016C197D090E
:100480008E099F09683E734081059105A8F321E01C
:10049000821A9108A108B10888EEC80E83E0D81E20
:1004A000E11CF11C81149104A104B10429F7FF900F
:1004B000EF90DF90CF90BF90AF909F908F90089576
:1004C00040919601509197012091940130919501AE
:1004D00042175307B4F49091E8009570E1F39091BE
:1004E000E80092FD19C08093F100809196019091EF
:1004F000970101968F739927892B19F48EEF8093BA
:10050000E800809196019091970101969093970150
:100510008093960181E0089580E00895EF92FF9224
:100520000F931F93CF93DF93F82E192FE62E042FEE
:1005300081E0860F880F0E94600283E00E946002C3
:10054000CF2DD12FEC0EFD2EF11CCE15DF05B9F00D
:1005500007FF13C0FE0184910E946002182F80E003
:100560000E946002812321968111EFCFDF91CF910C
:100570001F910F91FF90EF9008958881EDCF81E05A
:10058000F5CFDF92EF92FF920F931F93CF93DF93FC
:10059000D82E8A01EB017B01E40EF51ECE15DF0596
:1005A00059F0D7FE12C0FE0184910E94600221968C
:1005B0008111F4CF0FEF1FEFC801DF91CF911F9191
:1005C0000F91FF90EF90DF9008958881EECF0F9309
:1005D0001F93CF93DF931F92CDB7DEB782E089835D
:1005E00042E450E06CEA70E080E80E94C1020E94A0
:1005F0003A01DC0112960D911C910115110589F04B
:10060000D801ED91FC910280F381E02DBE016F5F76
:100610007F4FC801099597FD04C0F8010085118539
:10062000ECCF89810F90DF91CF911F910F910895A9
:100630008F929F92AF92BF92CF92DF92EF92FF92F2
:100640000F931F93CF93DF936C017B018A018091FD
:100650000B01882309F45BC08091B201882309F45F
:1006600056C080919A0180FF05C08091E0008260B1
:100670008093E000E801B12C8AEFA82E93E0892E48
:100680002AE3922E209711F4BB20D9F10E94290170
:1006900081110AC0AA94AA20D1F161E070E080E043
:1006A00090E00E942E02EECF8C171D0611F00CF088
:1006B0008C2F9FB7F8948092E9002091E80025FDE7
:1006C00002C09FBFDFCF282F30E0C21BD30BF70142
:1006D000815020F041914093F100FACFE20EF31ED9
:1006E000BB2021F09092E800B12CEBCF8091E80084
:1006F00085FDE7CF9092E800BB24B394209709F3DF
:10070000F3CF84E680939901101611063CF081E046
:1007100090E0F6019383828310E000E0C801DF914E
:10072000CF911F910F91FF90EF90DF90CF90BF90EE
:10073000AF909F908F900895CF93DF931F92CDB786
:10074000DEB76983DC01ED91FC910280F381E02D3D
:1007500041E050E0BE016F5F7F4F09950F90DF9140
:10076000CF91089583E08093E9008091F20088237F
:1007700019F08AE38093E80008950E94290190E02F
:100780000895FC018485958597FD05C02FEF3FEF07
:100790003587248708950C94FF00CF93DF93EC01F5
:1007A0008C859D8597FF04C00E94FF009D878C87E4
:1007B0008C859D85DF91CF910895FC018485958579
:1007C00097FD0BC09FB7F89482E08093E900809179
:1007D000F2009FBF90E0019608959FB7F89482E0E1
:1007E0008093E9008091F2009FBF90E00895FC01A2
:1007F00001900020E9F73197AF01481B590BBC016C
:1008000083EB91E00C9418038F929F92AF92BF926A
:100810000F931F93CF93DF93CDB7DEB7A1970FB69A
:10082000F894DEBF0FBECDBF19A2423008F44AE0F3
:100830008E010F5D1F4F842E912CB12CA12CA50190
:1008400094010E943E0DE62FB901CA01EA30F4F48A
:10085000E05DD801EE938D01232B242B252B79F716
:1008600090E080E0109719F0CD010E94F703A19667
:100870000FB6F894DEBF0FBECDBFDF91CF911F91B1
:100880000F91BF90AF909F908F900895E95CE1CF5A
:10089000CF93DF930E94F703EC0185E291E00E9481
:1008A000F7038C0F9D1FDF91CF9108954F925F92B8
:1008B0006F927F928F929F92AF92BF92CF92DF9270
:1008C000EF92FF920F931F93CF936B017C01742ED5
:1008D000AC019B010E94390D882399F088E291E0D8
:1008E000CF911F910F91FF90EF90DF90CF90BF902D
:1008F000AF909F908F907F906F905F904F900C94EF
:10090000F70346015701E894B7F82FEF3FEF4FE7A1
:100910005FE7C501B4010E94390D81110DC02FEFB1
:100920003FEF4FE75FE7C501B4010E946F0B181658
:100930001CF48CE291E0D4CF2FEF3FEF4FE75FE460
:10094000C701B6010E94C70C18161CF480E391E0A1
:10095000C7CF2FEF3FEF4FE75FECC701B6010E9413
:100960006F0B87FDF3CF20E030E0A901C701B6018E
:100970000E946F0B10E000E087FF0AC06DE283EB7E
:1009800091E00E949C038C01F7FAF094F7F8F09440
:10099000C0E060E070E080E09FE37C1641F020E082
:1009A00030E040E251E40E94740BCF5FF6CFA70124
:1009B00096010E94030B2B013C010E94E60B4B01A8
:1009C0005C014AE00E9404047C01E00EF11ECC238D
:1009D000C1F1C501B4010E94150C9B01AC01C3011A
:1009E000B2010E94020B4B015C016EE283EB91E0CD
:1009F0000E949C03E80EF91EC15018F120E030E07F
:100A000040E251E4C501B4010E94CC0C2B013C0131
:100A10000E94E60B4B01B12CA12C4AE0C501B401A8
:100A20000E940404E80EF91EC501B4010E94150CD1
:100A30009B01AC01C301B2010E94020B4B015C019E
:100A4000DBCFC701CF911F910F91FF90EF90DF9007
:100A5000CF90BF90AF909F908F907F906F905F905E
:100A60004F9008951F920F920FB60F9211242F935B
:100A70003F938F939F93AF93BF9380919D019091EC
:100A80009E01A0919F01B091A00130919C0126E0B0
:100A9000230F2D3758F50296A11DB11D20939C01FF
:100AA00080939D0190939E01A0939F01B093A0011C
:100AB0008091A1019091A201A091A301B091A40104
:100AC0000196A11DB11D8093A1019093A201A09355
:100AD000A301B093A401BF91AF919F918F913F91DA
:100AE0002F910F900FBE0F901F90189529E8230F9C
:100AF0000396A11DB11DD2CF1F920F920FB60F9278
:100B000011248F939F938091E1009091E100937F56
:100B10009093E10083FF0FC01092E90091E0909361
:100B2000EB001092EC0092E39093ED001092B20172
:100B300098E09093F00082FF1CC093E09093E9004E
:100B40009091F200992319F09AE39093E800909124
:100B50009901992329F090919901915090939901CD
:100B60009091B101992329F09091B1019150909306
:100B7000B10184FF18C08091E2008E7E8160809375
:100B8000E2008091E1008F7E8093E10080919A01E4
:100B90008E7E806180939A019F918F910F900FBEFE
:100BA0000F901F90189580FFF7CF8091E2008E7E06
:100BB00080618093E2008091E1008E7E8093E1006D
:100BC00080919A018E7E8160E5CF1F920F920FB6C1
:100BD0000F921124CF92DF92EF92FF920F931F9307
:100BE0002F933F934F935F936F937F938F939F9335
:100BF000AF93BF93EF93FF93CF93DF93CDB7DEB760
:100C00006C97DEBFCDBF1092E9008091E80083FFB2
:100C10002FC089E0FE017596EE2EDF2E815029F05F
:100C20009091F10090833196F9CF84E68093B101E1
:100C300082EF8093E8008D8987FF39C09091E800AA
:100C400090FFFCCF982F907609F033C19E894F8991
:100C5000588D2F89F88C911131C0803861F58091C1
:100C60009B018093F1001092F1008EEF8093E800D9
:100C70006C960FB6F894DEBF0FBECDBFDF91CF915B
:100C8000FF91EF91BF91AF919F918F917F916F9164
:100C90005F914F913F912F911F910F91FF90EF9096
:100CA000DF90CF900F900FBE0F901F9018959EEF82
:100CB0009093E800C7CF1092F100D5CF913059F44E
:100CC0008111D3CF4130510581F680919B018D7FF9
:100CD00080939B01CACF933049F48111C6CF413034
:100CE000510519F680919B018260F2CF953041F455
:100CF0008091E80080FFFCCF20682093E300B5CF0F
:100D0000963009F0A8C00B8D1C8D22E01092E900EE
:100D10001092970110929601F2122EC01092950136
:100D2000109294010E94E7021F8299E09983FA824F
:100D300091E09E8390EA98879AEF99872091960197
:100D400030919701275F3F4F3C832B838D83109217
:100D5000E90010929701109296011093950100936B
:100D6000940149E050E0BE016F5F7F4F80E00E9438
:100D7000C1020E94E70279CF10939501009394017C
:100D80000E943A01DC0112960D911C91011511058A
:100D900009F457C1D801ED91FC910480F581E02D53
:100DA0006E2D7D2DC8010995009709F045C1F80108
:100DB00000851185EBCFF3E0FF120EC08F898823E9
:100DC00009F440C0823061F440E862E18DE091E0D6
:100DD0000E948E02811149CF81E28093EB0048CFBF
:100DE000813029F440E868E084E091E0F1CF83307D
:100DF00099F70E943A01DC011296ED90FC908E0169
:100E00000F5F1F4F6801E114F10479F0D701ED91F4
:100E1000FC910680F781E02DB801C7010995080F04
:100E2000111DF701E084F184EECFD8011C92F60188
:100E300001900020E9F73197BF016C197D0940E06E
:100E4000C601C6CF6EEE70E0FB01449150E080E831
:100E50000E94C1020ACF973009F4BECF983021F426
:100E600081E08093F10001CF993009F0FECE8370CC
:100E700009F0B2CFEDE0F1E081E031E096E32191BD
:100E8000222371F08093E9003093EB00DF0111978A
:100E90002C912093EC009093ED008F5F873079F7D1
:100EA0008EE78093EA001092EA008F898093B20166
:100EB000DCCE8B8D9C8D1092E900109297011092E0
:100EC00096019093950180939401898D81119AC028
:100ED0008E899D89913A49F4813209F07DCF47E0AE
:100EE00050E064E071E080E0B3CF913209F074CF5C
:100EF000833269F48F89988DB0E0A0E0809300017F
:100F000090930101A0930201B0930301AECE803211
:100F1000A9F48091E80082FFFCCF88E0E4E0F1E0F2
:100F2000815029F09091F10090833196F9CF84E6B9
:100F30008093B1018BEF8093E80097CE823209F065
:100F400094CE8F8980930B01EEEFFFE7859194910A
:100F50008B3F9C4D51F1E0E0F8E0809104019091CD
:100F60000501A0910601B0910701803B9440A105C5
:100F7000B105F1F480910B0180FD1AC0EE3F8AE0CB
:100F8000F80789F587E797E7918380838091600070
:100F90008093980188E19BE00FB6F894A895809320
:100FA00060000FBE9093600060CEEEEFFAE0D5CF08
:100FB000808191818737974709F057CEA895809116
:100FC0006000886180936000809198018093600048
:100FD000EE3F2AE0F20789F08091FE0A9091FF0A25
:100FE0009183808342CE808191818737980751F227
:100FF0009093FF0A8093FE0AC5CF1092FF0A1092C9
:10100000FE0A33CE0E943A01DC0112960D911C912A
:101010000115110509F4E0CED801ED91FC91019084
:10102000F081E02D6E2D7D2DC801099581111DCE19
:10103000F80100851185ECCF181619060CF415CEB1
:10104000CBCEF1E0FF12B7CE62EF70E0FDCEE3EB66
:10105000F1E01382128288EE93E0A0E0B0E0848396
:101060009583A683B78387E191E0918380838FEF97
:101070009FEF95878487E3E0F2E084E080838BE054
:1010800081830895CF93DF9300D000D01F92CDB716
:10109000DEB7789484B5826084BD84B5816084BDF8
:1010A00085B5826085BD85B5816085BD80916E0006
:1010B000816080936E001092810080918100826037
:1010C0008093810080918100816080938100809174
:1010D0008000816080938000809191008260809385
:1010E00091008091910081608093910080919000A7
:1010F0008160809390008091C10084608093C100E2
:101100008091C10082608093C1008091C1008160A4
:101110008093C1008091C30081608093C30080915F
:10112000C00082608093C0008091C2008160809383
:10113000C20080917A00846080937A0080917A0066
:10114000826080937A0080917A008E7F80937A000B
:1011500080917A00806880937A001092B201109298
:101160009B0110929A018091D70081608093D700F3
:1011700080EA8093D80089B58F7E89BD89B5826069
:1011800089BD09B400FEFDCF61E070E080E090E031
:101190000E942E028091D8008F7C80618093D800BD
:1011A0008091E000807F8093E0008091E1008E7E5E
:1011B0008093E1008DE08093E2008FEF9FEF9093AA
:1011C000C0018093BF0100E010E08EEFF82EEE2406
:1011D000EA949DEFD92E19821A821B821C821D82ED
:1011E0008091030290E0FC01E759FE4F2491865B59
:1011F0009E4FFC018491882399F090E0880F991FFD
:10120000FC01E25DFE4FA591B491FC01E05EFE4F52
:10121000859194918FB7F894EC912E2B2C938FBFDE
:101220002091030230E0F901E857FE4F8491F90163
:10123000E759FE4FC490F901E65BFE4FB490BB2026
:1012400091F081110E944E01EB2DF0E0EE0FFF1F97
:10125000E05EFE4FA591B4918FB7F894EC91C094E5
:10126000CE22CC928FBF62E170E080E090E00E94DD
:101270002E028091030290E0FC01E759FE4F249179
:10128000865B9E4FFC0184918823C9F090E0880F13
:10129000991FFC01E25DFE4FA591B491FC01E05E57
:1012A000FE4F459154919FB7F8943C91822F8095C1
:1012B00083238C93DA01EC912E2B2C939FBF28E291
:1012C00030E040E050E061E0809103020E94BF0105
:1012D000672B682B692BC9F4D09205028091050217
:1012E0008E3F09F489C10CF032C18D3F09F487C1EA
:1012F00060ED77E080E090E00E942E02011511057C
:1013000009F469CF0E94000066CF20E530E040E09C
:1013100050E060E0809103020E94BF01672B682BC0
:10132000692BD1F220E530E040E050E061E08091AF
:1013300003020E94BF01672B682B692B69F2B12C55
:10134000A12C22E330E040E050E060E08091030215
:101350000E94BF0124E630E040E050E061E080916F
:1013600003020E94BF01662349F1F50173E0F59580
:10137000E7957A95E1F781E090E08C0F9D1FE80FEB
:10138000F91F8081880F91E06E3208F490E0890F98
:1013900080839FEFA91AB90AA8E2AA16B10489F6B8
:1013A00069814A81BB80CC80862F840F8B0D8C0D88
:1013B0009D81891731F0E092050290CFF0920502ED
:1013C0008DCF80910402853109F485C0863109F4FE
:1013D000B8C08B3009F06AC070E090E080E00E94F5
:1013E000150C609312027093130280931402909371
:1013F00015026B2D70E090E080E00E94170C4B010D
:101400005C016C2DC7FE55C06F7770E090E080E006
:101410000E94170C2DEC3CEC4CEC5DE30E94CC0CD4
:101420009B01AC0160E070E080E89FE30E94020B4A
:10143000A50194010E94030B4B015C01B7FAB09423
:10144000B7F8B0948092060290920702A092080228
:10145000B092090220E030E040E151E4C501B4015E
:101460000E94CC0C20E030E040EA50E40E94740B73
:1014700020E030E040E052E40E94030B60930A0257
:1014800070930B0280930C0290930D0223E333E9D7
:1014900048E853E4C501B4010E94030B60930E02B7
:1014A00070930F0280931002909311021092050224
:1014B00015CF70E090E080E00E94170C2DEC3CEC22
:1014C0004CEC5DE30E94CC0CA50194010E94030B3F
:1014D0004B015C01B7CF262F30E0322F2227B90114
:1014E000640F711D072E000C880B990B0E94170CBE
:1014F0002DEC3CEC4CEC5DE30E94CC0C60931202B2
:101500007093130280931402909315026B2D70E078
:10151000762F662766277F776C0D711D072E000CCE
:10152000880B990B0E94170C2DEC3CEC4CEC5DEBFE
:10153000B7FC04C02DEC3CEC4CEC5DE30E94CC0C01
:10154000C7CF862F90E0982F8827BC01C9CF8F3F47
:1015500009F44FC08111CCCE84E391E00E94F703DF
:101560006091060270910702809108029091090231
:1015700042E00E94560483E491E00E94480484E320
:1015800091E00E94F70360910E0270910F0280912A
:1015900010029091110242E00E94560488E491E00A
:1015A0000E94480484E391E00E94F70360910A02DC
:1015B00070910B0280910C0290910D0242E00E940A
:1015C00056048DE491E00E94480482E591E00E9477
:1015D000F7036091120270911302809114029091AE
:1015E000150242E00E9456048EE591E00E944804F4
:1015F0007FCE81E691E0FACF80E791E0F7CF8FE7E9
:1016000091E0F4CF5058BB27AA270E941A0B0C94E4
:101610008D0C0E947F0C38F00E94860C20F039F46B
:101620009F3F19F426F40C947C0C0EF4E095E7FB34
:101630000C94760CE92F0E949E0C58F3BA1762079F
:1016400073078407950720F079F4A6F50C94C00C75
:101650000EF4E0950B2EBA2FA02D0B01B9019001CD
:101660000C01CA01A0011124FF27591B99F0593F11
:1016700050F4503E68F11A16F040A22F232F342F59
:101680004427585FF3CF469537952795A795F040A7
:101690005395C9F77EF41F16BA0B620B730B840BBC
:1016A000BAF09150A1F0FF0FBB1F661F771F881F74
:1016B000C2F70EC0BA0F621F731F841F48F48795CC
:1016C00077956795B795F7959E3F08F0B0CF9395BE
:1016D000880F08F09927EE0F9795879508950E9437
:1016E000520C08F481E008950E94880B0C948D0C34
:1016F0000E94860C58F00E947F0C40F029F45F3F56
:1017000029F00C94760C51110C94C10C0C947C0CA7
:101710000E949E0C68F39923B1F3552391F3951B16
:10172000550BBB27AA2762177307840738F09F5F02
:101730005F4F220F331F441FAA1FA9F335D00E2E6F
:101740003AF0E0E832D091505040E695001CCAF7DC
:101750002BD0FE2F29D0660F771F881FBB1F26179F
:1017600037074807AB07B0E809F0BB0B802DBF0176
:10177000FF2793585F4F3AF09E3F510578F00C9445
:10178000760C0C94C10C5F3FE4F3983ED4F386953D
:1017900077956795B795F7959F5FC9F7880F911D66
:1017A0009695879597F90895E1E0660F771F881F52
:1017B000BB1F621773078407BA0720F0621B730B05
:1017C000840BBA0BEE1F88F7E09508950E94A60CD3
:1017D00088F09F5798F0B92F9927B751B0F0E1F0F2
:1017E000660F771F881F991F1AF0BA95C9F714C0A2
:1017F000B13091F00E94C00CB1E008950C94C00C7F
:10180000672F782F8827B85F39F0B93FCCF38695DA
:1018100077956795B395D9F73EF490958095709537
:1018200061957F4F8F4F9F4F0895E89409C097FBB4
:101830003EF490958095709561957F4F8F4F9F4FA7
:101840009923A9F0F92F96E9BB279395F6958795EB
:1018500077956795B795F111F8CFFAF4BB0F11F4AE
:1018600060FF1BC06F5F7F4F8F4F9F4F16C0882355
:1018700011F096E911C0772321F09EE8872F762F8B
:1018800005C0662371F096E8862F70E060E02AF0CC
:101890009A95660F771F881FDAF7880F96958795B8
:1018A00097F90895990F0008550FAA0BE0E8FEEF8D
:1018B00016161706E807F907C0F012161306E40714
:1018C000F50798F0621B730B840B950B39F40A260D
:1018D00061F0232B242B252B21F408950A2609F4EB
:1018E000A140A6958FEF811D811D089597F99F67EF
:1018F00080E870E060E008959FEF80EC0895002498
:101900000A941616170618060906089500240A9464
:1019100012161306140605060895092E0394000CEA
:1019200011F4882352F0BB0F40F4BF2B11F460FF79
:1019300004C06F5F7F4F8F4F9F4F089557FD9058A2
:10194000440F551F59F05F3F71F04795880F97FB83
:10195000991F61F09F3F79F087950895121613063D
:101960001406551FF2CF4695F1DF08C0161617066C
:101970001806991FF1CF86957105610508940895A1
:10198000E894BB2766277727CB0197F908950E9433
:10199000520C08F48FEF08950E94DF0C0C948D0C0C
:1019A0000E947F0C38F00E94860C20F0952311F0E5
:1019B0000C94760C0C947C0C11240C94C10C0E9499
:1019C0009E0C70F3959FC1F3950F50E0551F629FD9
:1019D000F001729FBB27F00DB11D639FAA27F00D88
:1019E000B11DAA1F649F6627B00DA11D661F829FAF
:1019F0002227B00DA11D621F739FB00DA11D621F94
:101A0000839FA00D611D221F749F3327A00D611DB0
:101A1000231F849F600D211D822F762F6A2F112492
:101A20009F5750409AF0F1F088234AF0EE0FFF1FC5
:101A3000BB1F661F771F881F91505040A9F79E3F1C
:101A4000510580F00C94760C0C94C10C5F3FE4F3CC
:101A5000983ED4F3869577956795B795F795E79572
:101A60009F5FC1F7FE2B880F911D9695879597F97B
:101A700008950E94520C880B990B0895A1E21A2E2A
:101A8000AA1BBB1BFD010DC0AA1FBB1FEE1FFF1F22
:101A9000A217B307E407F50720F0A21BB30BE40B72
:101AA000F50B661F771F881F991F1A9469F76095B9
:101AB0007095809590959B01AC01BD01CF01089573
:101AC000EE0FFF1F0590F491E02D0994F894FFCFDD
:101AD000FFFFFFFF00E100000000000000C1808167
:101AE000000000000000009C031803BD03B203DDEA
:101AF00003C103CD030D0A006E616E00696E6600BE
:101B00006F76660054656D706572617475726520DC
:101B10003D20002043200900204B200900204620C2
:101B2000090048756D6964697479203D200020259D
:101B300000436865636B73756D206572726F720028
:101B400054696D65206F7574206572726F720053F1
:101B5000656E736F72206E6F7420636F6E6E656357
:041B60007465640044
:00000001FF
